{
   "txid": "8340336222297dd7ca31128c1bba5e8ed20825a5a8f50ea6159d1a37e441d9d8",
   "version": 1,
   "type": 0,
   "size": 263,
   "locktime": 0,
   "vin": [
      {
         "txid": "8c405b11ed034b007de749ff30e3f0f0fb3ffead0cd416e6d478bd92d6de2e67",
         "vout": 1,
         "scriptSig": {
            "asm": "304502210091829043b306e30b150cd9b6de3341cf7cc06082dc41a1f9af82777d6058ba6502207e349b4b3f872a45d6e45cbce441a1c18aa02a526506aeb95c71887b18c71142[ALL] 81 02efe2d0a0dee8caba5b6c2e44abd2e89bba3cfa74301795866ad10ce29a402c0c",
            "hex": "48304502210091829043b306e30b150cd9b6de3341cf7cc06082dc41a1f9af82777d6058ba6502207e349b4b3f872a45d6e45cbce441a1c18aa02a526506aeb95c71887b18c711420101512102efe2d0a0dee8caba5b6c2e44abd2e89bba3cfa74301795866ad10ce29a402c0c"
         },
         "sequence": 4294967295
      }
   ],
   "vout": [
      {
         "value": 0,
         "n": 0,
         "scriptPubKey": {
            "asm": "",
            "hex": "",
            "type": "nonstandard"
         }
      },
      {
         "value": 61608854166,
         "n": 1,
         "scriptPubKey": {
            "asm": "OP_DUP OP_HASH160 OP_ROT OP_IF OP_CHECKCOLDSTAKEVERIFY_LOF d90cecc56d1e047de4dae634a48d2ce7d5d5fef8 OP_ELSE 71c9f0688cdd72d7cbc951a8183c525d6b5a4b12 OP_ENDIF OP_EQUALVERIFY OP_CHECKSIG",
            "hex": "76a97b63d114d90cecc56d1e047de4dae634a48d2ce7d5d5fef8671471c9f0688cdd72d7cbc951a8183c525d6b5a4b126888ac",
            "reqSigs": 2,
            "type": "coldstake",
            "addresses": [
               "Sh5f9WJGv2PLVwDGht8k7X7qNrze6Gtq6Y",
               "DFWkoui9FXzrx1CNGX1anhKiAPFXoa4ZGz"
            ]
         }
      },
      {
         "value": 300000000,
         "n": 2,
         "scriptPubKey": {
            "asm": "OP_DUP OP_HASH160 72d18d0359af9c7a8834f576eb217102aa6f3171 OP_EQUALVERIFY OP_CHECKSIG",
            "hex": "76a91472d18d0359af9c7a8834f576eb217102aa6f317188ac",
            "reqSigs": 1,
            "type": "pubkeyhash",
            "addresses": [
               "DFcCbyTSAdJvVvYvvRfva1D22t2boGZBTr"
            ]
         }
      }
   ],
   "hex": "0100000001672eded692bd78d4e616d40cadfe3ffbf0f0e330ff49e77d004b03ed115b408c010000006d48304502210091829043b306e30b150cd9b6de3341cf7cc06082dc41a1f9af82777d6058ba6502207e349b4b3f872a45d6e45cbce441a1c18aa02a526506aeb95c71887b18c711420101512102efe2d0a0dee8caba5b6c2e44abd2e89bba3cfa74301795866ad10ce29a402c0cffffffff0300000000000000000096822c580e0000003376a97b63d114d90cecc56d1e047de4dae634a48d2ce7d5d5fef8671471c9f0688cdd72d7cbc951a8183c525d6b5a4b126888ac00a3e111000000001976a91472d18d0359af9c7a8834f576eb217102aa6f317188ac00000000",

   "blockhash": "5a2d4eca91976fc90a5cd62bb4952754f4d4ae02e7264ea9be13ca6f08b9f627",
   "confirmations": 21,
   "time": 1665136560,
   "blocktime": 1665136560
}
